:100000000C943A000C9457000C9457000C94570031
:100010000C9457000C9457000C9457000C94570004
:100020000C9457000C9457000C9457000C945700F4
:100030000C9457000C9457000C9457000C945700E4
:100040000C9457000C9457000C9457000C945700D4
:100050000C9457000C9457000C9457000C945700C4
:100060000C9457000C9457000C9457000C945700B4
:100070000C94570011241FBECFEFD4E0DEBFCDBFDC
:1000800011E0A0E0B1E0E8E9F4E102C005900D92D2
:10009000AE3EB107D9F722E0AEEEB1E001C01D924D
:1000A000A237B207E1F70E948D090C944A0A0C941A
:1000B00000008091150290911602019719F087E1D6
:1000C00092E0089589E392E008958091150290915D
:1000D0001602019719F089E392E0089587E192E012
:1000E00008950E94E20380E00E94B0038823A9F0F3
:1000F0008091000190910101039779F40E945900C9
:10010000FC01228133812130310539F060E070E05B
:100110000E94890785E50E94340882E00E94B003AE
:100120008823A1F08091000190910101039771F45F
:100130000E945900FC0122813381232B39F061E0B8
:1001400070E00E94890784E40E94340881E00E94E4
:10015000B0038823A9F080910001909101010397D9
:1001600079F40E945900FC0122813381223031054B
:1001700039F063E070E00E94890782E50E9434084C
:1001800083E00E94B0038823A9F080910001909140
:100190000101039779F40E945900FC012281338107
:1001A0002330310539F062E070E00E9489078CE469
:1001B0000E94340884E00C94B0030F931F93CF93F4
:1001C000DF938091000190910101039709F091C0A4
:1001D00022EF31E080E090E0F901E80FF91F108292
:1001E000019687309105C1F7295F3F4F82E02531A5
:1001F000380781F70E94A30500E010E0C6E0D0E0D8
:100200000E945900FC01C80163E070E00E94D5091A
:10021000DF01A80FB91F18964C914F36C1F09C0111
:100220002A5F3F4FE20FF31F81819E01281B310996
:10023000808190E067E070E00E94D509820F931FF3
:10024000FC01EE50FE4F40830F5F1F4FD9CF8091CE
:10025000EE018F5F8B3028F48093EE0100E010E018
:1002600045C01092EE0100E010E0C6E0D0E00E9430
:100270006500FC01C80163E070E00E94D509DF0160
:10028000A80FB91F18964C914F3641F39C012A5F75
:100290003F4FE20FF31F81819E01281B31098081AE
:1002A00090E067E070E00E94D509820F931FFC0187
:1002B000EE50FE4F40830F5F1F4FD9CFCE0167E056
:1002C00070E00E94D509800F911FFC01EE50FE4F97
:1002D00060818C2F902F0E94F2042196C530D105A9
:1002E00069F70F5F1F4F0730110519F0C0E0D0E02C
:1002F000E5CFDF91CF911F910F910C94C8060E941A
:100300002A08882311F10E942C088C3449F01CF42F
:100310008434A9F00895823541F0853559F0089567
:100320000E94650062E070E00EC00E94650063E01C
:1003300070E009C00E94650060E070E004C00E94A7
:10034000650061E070E00C9489070895CF93DF9316
:10035000CDB7DEB729970FB6F894DEBF0FBECDBF7D
:100360008C0184EF91E00E94700887E599E4AEE487
:10037000B0E08E839F83A887B98785E0E7EDF1E041
:10038000DE01119601900D928A95E1F70230110578
:1003900039F00330110539F00130110541F403C083
:1003A000CE01069602C0CE0101960E94A4060E94CC
:1003B00085080E94C806FBCF0F931F93CF93DF934E
:1003C000CDB7DEB762970FB6F894DEBF0FBECDBFD4
:1003D00000910001109101010230110509F458C08B
:1003E00080F50130110509F091C084EF91E00E9481
:1003F000440784E391E00E94C30681E090E00E94FC
:10040000B90681E090E00E94BE068AE00E94B30631
:100410000E945F040E94460824E041E050E060E052
:1004200070E089E392E00E94540724E043E056E044
:1004300061E070E087E192E00E94540782E090E082
:1004400061C00330110551F00430110509F05EC0A0
:100450008091F0019091F1010E94A6010E94650037
:100460008C010E945900B8010E94C8079093F101C5
:100470008093F001892B49F40E9459000E941008D2
:100480000E9465000E94100841C084E090E03AC0DC
:1004900084EF91E00E94700882E1ECEDF1E0DE0172
:1004A000119601900D928A95E1F7CE0101960E9476
:1004B000A40610931602009315020E9485080E945C
:1004C000C8060E94E2030E942A08882349F00E947D
:1004D0002C088093EF01813319F482E090E00AC088
:1004E00084E00E94B003882341F381E30E94340832
:1004F00081E090E090931602809315020E94A3057C
:1005000083E090E0909301018093000162960FB622
:10051000F894DEBF0FBECDBFDF91CF911F910F9139
:100520000895E1E6F0E080E880831082A89584B722
:10053000877F84BFE0E6F0E080818861808310825D
:1005400008951092800084E08093810010928500CD
:100550001092840008958091840090918500089500
:10056000AC0180918400909185009C01241B350B87
:10057000283E3340B0F708952091840030918500E3
:10058000820F931F0C94B002853098F4673088F482
:1005900021E030E001C0220F6A95EAF7E82FF0E091
:1005A000E45AFD4F922F9095808189234111822B2F
:1005B00080830895853080F4673070F4E82FF0E090
:1005C000E45AFD4F81E090E001C0880F6A95EAF798
:1005D0009081982381E009F480E0089560915B02A6
:1005E000E62FF0E0E45AFD4F80810E94470380919E
:1005F0005B028F5F853018F480935B020895109240
:100600005B020895ECE5F2E01082118212821382FF
:10061000148208950E9425030C940203811105C0E1
:10062000662311F0429A0895429808953A9A429AA0
:1006300008959C01FC01FF2784A1832B84A395A12D
:10064000892F832B85A381E00895CF93DF93CAEB95
:10065000D1E0899199910E94190381E0C83CD807A3
:10066000C1F783E090E40E94190380E090E80E94C3
:10067000190383E090E10E94190383E090E80E944F
:10068000190383E090E2DF91CF910C941903E0917C
:100690006102F0E0EE0FFF1FE055FE4F2081318137
:1006A000F901FF2795A1932B95A3EAEBF1E097E0E1
:1006B00020813181D901BB2795962C91959780FF98
:1006C00003C03095232301C0232B95962C93869548
:1006D000915032969111ECCFE62FF0E0EE0FFF1F14
:1006E000E055FE4F80819181FC01FF2785A1909507
:1006F000892385A36093610208956230710511F129
:1007000068F46130710551F5FC01FF2724A1892FA0
:100710008095922F982394A395A112C06330710500
:1007200041F064307105D1F4FC01FF2784A1892BCD
:100730000FC0FC01FF2784A1892B84A385A190957C
:10074000892309C0FC01FF2724A1892F80958223DA
:1007500084A385A1892B85A381E0089580E0089575
:10076000E82FF0E0EE0FFF1FEE59FD4F8081882348
:1007700021F0918181E0892702C080E090E08170C2
:100780000895E82FF0E0EE0FFF1FEE59FD4F808136
:10079000811102C0818102C080E090E081700895E3
:1007A000E82FF0E0EE0FFF1FEE59FD4F8081089516
:1007B000E82FF0E0EE0FFF1FEE59FD4F908181E032
:1007C000892708956F927F928F929F92AF92BF92E6
:1007D000CF92DF92EF92FF920F931F93CF93DF930D
:1007E00000D0CDB7DEB722E6622E22E0722E38ECC2
:1007F000C32E31E0D32E812C46E0942EF30180816C
:100800008183F601019111916F015801BB24F5011B
:1008100084A1E12EFF2425A130E02E213F2141E0DB
:10082000232B09F440E090E08E219F21892B29F0B1
:10083000411108C023E030E00AC0411106C021E0A8
:1008400030E005C024E030E002C022E030E064E0A7
:1008500070E0C80129833A830E947D0362E070E062
:10086000C8010E947D03892D8A95F1F7F50183A1C6
:1008700090E0E822F92281E029813A81EF2809F00D
:1008800080E0F3018083B901C8010E947D03839455
:10089000F2E06F0E711C85E08812B0CF0F900F90C0
:1008A000DF91CF911F910F91FF90EF90DF90CF904C
:1008B000BF90AF909F908F907F906F900895089514
:1008C000009789F0FC012381621B67FD09C0062E99
:1008D000000C770B248130E081E0621773070CF085
:1008E00080E08170089580E00895CF93DF93FC014C
:1008F000A62F822F309771F16181461758F59281AA
:10090000291740F59381A91BA7FD24C00A2E000CCE
:10091000BB0BC481D0E0AC17BD07E4F40E94CC0946
:10092000480F658170E0CD010E94D5090696242FFD
:10093000269526952695E80FF91FE20FF11D908167
:10094000892F90E0477002C0959587954A95E2F708
:10095000817001C080E0DF91CF910895182F092F99
:10096000F62E0E94A1020E94AB02C12FD02F8E81D1
:100970009F810E94B002E881F9818A819B8109955B
:100980008E819F812C813D81280F391F3F832E83CB
:100990000E94AB02E12FF02FAFEFBFEF40E04F1509
:1009A00031F326813781BC01621B730B9B012F3F02
:1009B0007FE7370710F4EF01DACF31952195310940
:1009C0002A173B0710F4D901EF014F5F3896E7CFA4
:1009D00041E0611101C040E0692F0C94C402692F0D
:1009E0000C94DA0241E0611101C040E0692F0C94DF
:1009F000C4024F925F926F927F928F929F92AF92BA
:100A0000BF92CF92DF92EF92FF920F931F93CF93FB
:100A1000DF931F92CDB7DEB7862E942E5C01E62EB3
:100A2000F72E262F660F330B281B310987FD3395D0
:100A3000072F072E000C110B091B110997FD1395A9
:100A400037FF03C077247A9402C07724739417FF8A
:100A500003C066246A9402C066246394290137FFA8
:100A600003C051944194510817FF03C0119501959B
:100A7000110940165106A4F06201D594C794F92ECD
:100A8000A81421F1692D8A2D9F2D0E94F204C01A0D
:100A9000D10AD7FE03C0C40CD51CF60CA70CF0CFAE
:100AA0006801D594C794E82EB71681F0692D8E2D74
:100AB0009B2D79830E94F204C418D5087981D7FE52
:100AC00003C0C00ED11EE70CB60CEECF692DC701D6
:100AD0000F90DF91CF911F910F91FF90EF90DF90DA
:100AE000CF90BF90AF909F908F907F906F905F90CE
:100AF0004F900C94F204FF920F931F93CF93DF93C8
:100B0000D82FF92E162FC72F042F792F0E94F90402
:100B1000402F6D2F7C2F8D2F9F2D0E94F904402F89
:100B2000612F7C2F812F9F2D0E94F904402F612F70
:100B30007C2F8D2F9C2F0E94F904DF91CF911F9164
:100B40000F91FF9008950E940203E2E0F1E0118A04
:100B500014860895DF92EF92FF920F931F93CF9325
:100B6000DF93D82E7B01162F0F2D809104019091D9
:100B70000501C0E00197A1F50F2D0C1BE0910A01C2
:100B8000F0910B018181C817C0F4D0E080910A0177
:100B900090910B01FC012281D21768F42D2F4C2F6C
:100BA0006D2D0E947504682F8D2F8E0D902F0E9441
:100BB000F204DF5FEBCFCF5FDFCFC0E0E0910A014F
:100BC000F0910B018281C81740F460E08C2F8E0DEC
:100BD000902F0E94F204CF5FF1CF015031C0CF5F60
:100BE0001C2F1E0DE0910A01F0910B018181C817A5
:100BF000B0F4D0E080910A0190910B01FC012281B8
:100C0000D21768F72D2F4C2F6D2D0E947504682F79
:100C1000812F9D2F9F0D0E94F204DF5FEBCFC0E07C
:100C2000E0910A01F0910B018281C81740F460E065
:100C3000812F9C2F9F0D0E94F204CF5FF1CF1F5F89
:100C4000812F902FDF91CF911F910F91FF90EF9007
:100C5000DF9008951F93CF93DF93182FEC018C2F13
:100C6000811B9991992351F0892F0E94AA05BC01FB
:100C70008C2F811B653014F477FFF1CFDF91CF917A
:100C80001F9108950F931F93CF93DF93EC019B0166
:100C900010920E0140930F011092120100910A016F
:100CA00010910B010115110509F449C0F80181816A
:100CB000609108017091090190E00E94D509BC0182
:100CC00080910C0190910D010E94E609CB016AE030
:100CD00070E00E94D5099093110180931001309328
:100CE00007012093060140E250E0BE0183E191E05C
:100CF0000E943B0A80910201909103010197F9F44F
:100D0000FE0101900020E9F7CF010197F8019181E0
:100D1000692F70E06F5F7F4F8C1B0E94CC09815060
:100D200020910401309105012130310511F095E049
:100D300001C097E0981718F48EEF80931201DF91AD
:100D4000CF911F910F9108952091040130910501D9
:100D50002130310511F070E001C076E04FEF60E026
:100D60000E944206089590E0909309018093080143
:100D700008959093030180930201089590930501D3
:100D800080930401089590930B0180930A010895C4
:100D900080916C0290916D02019690936D02809308
:100DA0006C0220911001309111018217930708F411
:100DB00069C010926D0210926C02E0910E01F0E099
:100DC000EE5FFE4F818981110AC080910F01823050
:100DD00008F458C0815080930F0110920E01809149
:100DE0000E0190E0FC01EE5FFE4F2189222309F401
:100DF00049C0409102015091030120911201411517
:100E0000510521F04130510599F024C0211122C033
:100E100060910601709107018D5E9E4F0E942A0627
:100E200090E0019790910E01890F80930E0112C0FE
:100E300060910601709107014091040150910501F4
:100E40004130510511F4720F01C0621B8D5E9E4F3F
:100E50000E942A06809112018F5F80931201082E52
:100E6000000C990BE0910A01F0910B01218130E017
:100E7000281739073CF41092120180910E018F5F00
:100E800080930E010C94EE02CF93DF93C2E0D1E089
:100E90009B878A870E940A0384E190E09F838E8368
:100EA000DF91CF910C94A3050F931F93CF93DF9302
:100EB000FC0171836083558344835783468381E0BB
:100EC0008087DF011B9641E050E030E08FE691E043
:100ED000BD01625071098D0101501109EB01888338
:100EE000E80188834217530714F49C9301C08C9344
:100EF0004F5F5F4F13964830510551F711A210A272
:100F000088EC90E0978F868FDF91CF911F910F91A2
:100F10000895FC01718360830895FC0180819181B3
:100F20008130910571F030F08230910591F0039796
:100F3000B9F01DC08581863010F48F5F06C0158220
:100F400016C08581882319F08150858310C086E002
:100F5000FCCF8481882311F0815006C084E004C056
:100F60008481843018F48F5F848301C01482968159
:100F70008781248135813783268331852285918736
:100F8000828794858585348725879787808B089508
:100F90000F931F93CF93DF938C01EB01FC0194819E
:100FA0008C81981304C035812D81321761F1DE01E7
:100FB0001A969E012D5E3F4FAD0141505109FA0135
:100FC0004081941305C0F80155814C915417F1F0FC
:100FD0001396A217B30781F7D8011A96A8014D5EA0
:100FE0005F4F9D0121503109F9019081891304C09F
:100FF0002D819C91291769F01396A417B50789F7DD
:1010000080E090E008C083E090E005C081E090E0DF
:1010100002C082E090E0DF91CF911F910F9108957F
:10102000CF93DF93EC0188A199A1019699A388A39E
:101030002E8D3F8D8217930728F019A218A2CE019A
:101040000E948D07888199819B838A8380E0DF914C
:10105000CF9108950C9430090C9451090C943609E1
:101060000C943C090C9442090E9442090E943C09DC
:101070008823E1F38CE291E00197F1F70E943009B7
:1010800081110C942C0808950C945809CF93DF9388
:1010900000D01F92CDB7DEB780ED90E09A838983B0
:1010A00088E08B83509A589A0E9403098FE690E05B
:1010B0000E949A0881E090E00E94F20861E070E0EE
:1010C00081E090E00E94DE080E94CA08CE010196ED
:1010D0000E9418090F900F900F90DF91CF91089503
:1010E000CF93DF93EC010E94A1029E0140E050E00B
:1010F00062E17AE780E090E00E94FA0930937102A1
:1011000020937002DF91CF91089580916E029091AB
:101110006F020E94B00220916E0230916F028091A6
:10112000700290917102820F931F90936F028093CF
:101130006E020895CF93DF931F92CDB7DEB79E0165
:101140002F5F3F4F45E062ED71E00E94640991E03E
:10115000980F909333019981915097BD18BC95B524
:10116000977039F095B5209133012770987F922BB5
:1011700095BD298130E0E82FF0E0EE52FE4FC90125
:10118000008002C0880F991F0A94E2F70F90DF9148
:10119000CF91089585B3897F85BB85B59091330143
:1011A0009770887F892B85BD089585B5887F85BD1B
:1011B000089585B382FB882780F90895009719F078
:1011C000019741F0089584B56295660F660F607CC3
:1011D0008F7305C084B563706295607F8F7C682BC8
:1011E00064BD0895009741F0019759F484B58E7F4E
:1011F00084BD84B5826002C084B58C7F84BD81E0EB
:10120000089580E0089514BC15BC16BC18BC84B5C4
:101210008E7F84BD84B5826084BD81E008959C0189
:10122000215031093093CD0081508093CC00089536
:10123000CF93DF93EC01888199810E940F098A8105
:101240009BEF980F943008F088E098E19093C900E4
:101250008550880F8093CA0081E0DF91CF91089577
:101260008091C800881F8827881F08958091C80032
:1012700085FB882780F908958091C80086FB882720
:1012800080F90895CF93C82F0E9436098823E1F38F
:101290009091C80090649093C800C093CE00CF9105
:1012A00008958091C80087FFFCCF8091CE000895FB
:1012B000CF93DF93EC018991882319F00E944209B2
:1012C000FACFDF91CF910895CF93DF93DC01562FB2
:1012D000FB0160E070E0C1E0D0E08E2F851B841739
:1012E000B8F49191BE01092E02C0660F771F0A94CF
:1012F000E2F76F5F7F4F769567956A0F7B1F02C09D
:10130000769567959A95E2F76F3F710509F028F792
:10131000F9016083DF91CF910895CF93DF93CDB72B
:10132000DEB7A0970FB6F894DEBF0FBECDBF0E9408
:101330009102CE01019620E2FC0111922A95E9F773
:101340002DED30E03A8329832EE330E03E832D8378
:1013500021E730E03A8729872CE930E03E872D8766
:101360004FE751E05A8B498B3E8B2D8B2CED31E0B2
:101370003A8F298F28E331E03E8F2D8F64E00E9461
:10138000AE0480E090E0A0960FB6F894DEBF0FBEEA
:10139000CDBFDF91CF910895002480FD060E660F2A
:1013A00011F08695D1F7802D08950024552704C0AB
:1013B000080E591F880F991F009729F07695679599
:1013C000B8F37105B9F7802D952F0895AA1BBB1BA3
:1013D00051E107C0AA1FBB1FA617B70710F0A61B35
:1013E000B70B881F991F5A95A9F780959095BC0156
:1013F000CD010895052E97FB1EF400940E94110A5A
:1014000057FD07D00E94190A07FC03D04EF40C9434
:10141000110A50954095309521953F4F4F4F5F4FA2
:10142000089590958095709561957F4F8F4F9F4F50
:101430000895A1E21A2EAA1BBB1BFD010DC0AA1F15
:10144000BB1FEE1FFF1FA217B307E407F50720F02D
:10145000A21BB30BE40BF50B661F771F881F991FA8
:101460001A9469F760957095809590959B01AC01F1
:10147000BD01CF010895FB01DC014150504048F00F
:1014800001900D920020C9F701C01D9241505040BB
:08149000E0F70895F894FFCF86
:10149800010000000000000014000000000000002F
:1014A8000000000000000000000000000000000034
:1014B8000000000000000000000000000000000024
:1014C80000000001010305203B0200009220EB739D
:1014D8007D5FDE3DA552EA7A14004A222229BA2EFF
:1014E800D0050014C0010020A4126A2B9A74A372BC
:1014F800A338ED498F38CE2AA712AA2AAE4910047C
:1015080010145444380E11152A250000EA5BEB3AF2
:101518004F726B3BCF73CF134F7AED5B9774247B7D
:101528005D564972FD5B6F5B6F7BEF136F7FEF5703
:10153800CE3897246D7B6D2BED5FAD5AAD24A77225
:1015480003400080031003800320004000200010A7
:10155800000800040002000103800340032000800B
:101568000310000306080A4C4F53540057454C43D8
:0E1578004F4D4520544F20534E414B455300DC
:00000001FF
