:100000000C943A000C9457000C9457000C94570031
:100010000C9457000C9457000C9457000C94570004
:100020000C9457000C9457000C9457000C945700F4
:100030000C9457000C9457000C9457000C945700E4
:100040000C9457000C9457000C9457000C945700D4
:100050000C9457000C9457000C9457000C945700C4
:100060000C9457000C9457000C9457000C945700B4
:100070000C94570011241FBECFEFD4E0DEBFCDBFDC
:1000800011E0A0E0B1E0EEE8F1E102C005900D92D0
:10009000A83DB107D9F722E0A8EDB1E001C01D925B
:1000A000A235B207E1F70E94E3070C94C5080C944F
:1000B000000008950E94990280E00E946702882350
:1000C00061F08091000190910101039731F460E0AB
:1000D00070E08BEF91E00E94400682E00E94670290
:1000E000882361F08091000190910101039731F420
:1000F00061E070E08BEF91E00E94400681E00E9499
:100100006702882361F080910001909101010397BB
:1001100031F463E070E08BEF91E00E94400683E0F1
:100120000E946702882361F0809100019091010193
:10013000039731F462E070E08BEF91E00E9440069B
:1001400084E00E946702882361F080910001909111
:100150000101059731F482E090E0909301018093D2
:10016000000108950F931F93CF93DF9380910001B7
:1001700090910101039709F068C028ED31E080E01B
:1001800090E0F901E80FF91F108201968730910580
:10019000C1F7295F3F4F81E02B3F380781F70E946D
:1001A0005A04E1E0F2E0C6E0D0E040814F36A9F029
:1001B000DF0111978C919E01281B310911978C91B9
:1001C00090E067E070E00E945008820F931FDC010E
:1001D000A852BE4F4C933396E8CFE1E2F2E0C6E07E
:1001E000D0E040814F36A9F0DF0111978C919E013C
:1001F000281B310911978C9190E067E070E00E9414
:100200005008820F931FDC01A852BE4F4C933396C7
:10021000E8CF00E010E0C0E0D0E0CE0167E070E0A1
:100220000E945008800F911FFC01E852FE4F608130
:100230008C2F902F0E94A9032196C530D10569F714
:100240000F5F1F4F0730110531F7DF91CF911F91DD
:100250000F910C947F0580910001909101018330F2
:10026000910539F018F4029761F00895069778F433
:1002700008C08BEF91E00E946E068BE192E00C9437
:100280006E0683E090E09093010180930001089551
:10029000E1E6F0E080E880831082A89584B7877F4C
:1002A00084BFE0E6F0E08081886180831082089559
:1002B0001092800084E0809381001092850010925B
:1002C0008400089580918400909185000895AC0188
:1002D00080918400909185009C01241B350B283E61
:1002E0003340B0F708952091840030918500820F4B
:1002F000931F0C946701853098F4673088F421E0EF
:1003000030E001C0220F6A95EAF7E82FF0E0E45CE4
:10031000FD4F922F9095808189234111822B8083FC
:100320000895853080F4673070F4E82FF0E0E45CE5
:10033000FD4F81E090E001C0880F6A95EAF7908157
:10034000982381E009F480E0089560913B02E62F54
:10035000F0E0E45CFD4F80810E94FE0180913B0251
:100360008F5F853018F480933B02089510923B0212
:100370000895ECE3F2E0108211821282138214825B
:1003800008950E94DC010C94B901811105C0662317
:1003900011F0429A0895429808953A9A429A08951F
:1003A0009C01FC01FF2784A1832B84A395A1892FA5
:1003B000832B85A381E00895CF93DF93CAEBD1E02F
:1003C000899199910E94D00181E0C83CD807C1F77A
:1003D00083E090E40E94D00180E090E80E94D00188
:1003E00083E090E10E94D00183E090E80E94D00178
:1003F00083E090E2DF91CF910C94D001E091410233
:10040000F0E0EE0FFF1FE055FE4F20813181F90132
:10041000FF2795A1932B95A3EAEBF1E097E02081CC
:100420003181D901BB2795962C91959780FF03C008
:100430003095232301C0232B95962C9386959150BC
:1004400032969111ECCFE62FF0E0EE0FFF1FE05552
:10045000FE4F80819181FC01FF2785A19095892322
:1004600085A36093410208956230710511F168F42B
:100470006130710551F5FC01FF2724A1892F80957A
:10048000922F982394A395A112C06330710541F077
:1004900064307105D1F4FC01FF2784A1892B0FC0C2
:1004A000FC01FF2784A1892B84A385A19095892332
:1004B00009C0FC01FF2724A1892F8095822384A3F2
:1004C00085A1892B85A381E0089580E00895E82F18
:1004D000F0E0EE0FFF1FEE5BFD4F8081882321F0DF
:1004E000918181E0892702C080E090E081700895C9
:1004F000E82FF0E0EE0FFF1FEE5BFD4F80818111D2
:1005000002C0818102C080E090E081700895E82FF0
:10051000F0E0EE0FFF1FEE5BFD4F80810895E82FA6
:10052000F0E0EE0FFF1FEE5BFD4F908181E0892729
:1005300008956F927F928F929F92AF92BF92CF92C7
:10054000DF92EF92FF920F931F93CF93DF9300D030
:10055000CDB7DEB722E4622E22E0722E38ECC32E35
:1005600031E0D32E812C46E0942EF30180818183EB
:10057000F601019111916F015801BB24F50184A18D
:10058000E12EFF2425A130E02E213F2141E0232B45
:1005900009F440E090E08E219F21892B29F0411140
:1005A00008C023E030E00AC0411106C021E030E07D
:1005B00005C024E030E002C022E030E064E070E0FA
:1005C000C80129833A830E94340262E070E0C801C6
:1005D0000E943402892D8A95F1F7F50183A190E0FC
:1005E000E822F92281E029813A81EF2809F080E0B0
:1005F000F3018083B901C8010E9434028394F2E0C0
:100600006F0E711C85E08812B0CF0F900F90DF91B4
:10061000CF911F910F91FF90EF90DF90CF90BF90FF
:10062000AF909F908F907F906F900895089500975E
:1006300089F0FC012381621B67FD09C0062E000CB6
:10064000770B248130E081E0621773070CF080E0C3
:100650008170089580E00895CF93DF93FC01A62F69
:10066000822F309771F16181461758F592812917D1
:1006700040F59381A91BA7FD24C00A2E000CBB0BDB
:10068000C481D0E0AC17BD07E4F40E944708480FCE
:10069000658170E0CD010E9450080696242F2695B2
:1006A00026952695E80FF91FE20FF11D9081892FFD
:1006B00090E0477002C0959587954A95E2F7817062
:1006C00001C080E0DF91CF910895182F092FF62EF9
:1006D0000E9458010E946201C12FD02F8E819F81FC
:1006E0000E946701E881F9818A819B8109958E8149
:1006F0009F812C813D81280F391F3F832E830E94CB
:100700006201E12FF02FAFEFBFEF40E04F1531F363
:1007100026813781BC01621B730B9B012F3F7FE752
:10072000370710F4EF01DACF3195219531092A17F7
:100730003B0710F4D901EF014F5F3896E7CF41E056
:10074000611101C040E0692F0C947B01692F0C946A
:10075000910141E0611101C040E0692F0C947B01DF
:100760004F925F926F927F928F929F92AF92BF92C1
:10077000CF92DF92EF92FF920F931F93CF93DF936D
:100780001F92CDB7DEB7862E942E5C01E62EF72E93
:10079000262F660F330B281B310987FD3395072F52
:1007A000072E000C110B091B110997FD139537FF3C
:1007B00003C077247A9402C07724739417FF03C090
:1007C00066246A9402C066246394290137FF03C03B
:1007D00051944194510817FF03C0119501951109D7
:1007E00040165106A4F06201D594C794F92EA814BE
:1007F00021F1692D8A2D9F2D0E94A903C01AD10ACB
:10080000D7FE03C0C40CD51CF60CA70CF0CF6801B2
:10081000D594C794E82EB71681F0692D8E2D9B2DA7
:1008200079830E94A903C418D5087981D7FE03C033
:10083000C00ED11EE70CB60CEECF692DC7010F908C
:10084000DF91CF911F910F91FF90EF90DF90CF90AC
:10085000BF90AF909F908F907F906F905F904F90E0
:100860000C94A903FF920F931F93CF93DF93D82F7C
:10087000F92E162FC72F042F792F0E94B003402F77
:100880006D2F7C2F8D2F9F2D0E94B003402F612F45
:100890007C2F812F9F2D0E94B003402F612F7C2F32
:1008A0008D2F9C2F0E94B003DF91CF911F910F914C
:1008B000FF9008950E94B901E2E0F1E0118A1486E8
:1008C0000895DF92EF92FF920F931F93CF93DF93E0
:1008D000D82E7B01162F0F2D8091040190910501D8
:1008E000C0E00197A1F50F2D0C1BE0910A01F091DA
:1008F0000B018181C817C0F4D0E080910A0190916A
:100900000B01FC012281D21768F42D2F4C2F6D2D85
:100910000E942C03682F8D2F8E0D902F0E94A9030B
:10092000DF5FEBCFCF5FDFCFC0E0E0910A01F09156
:100930000B018281C81740F460E08C2F8E0D902F40
:100940000E94A903CF5FF1CF015031C0CF5F1C2FB0
:100950001E0DE0910A01F0910B018181C817B0F4DE
:10096000D0E080910A0190910B01FC012281D21705
:1009700068F72D2F4C2F6D2D0E942C03682F812F8F
:100980009D2F9F0D0E94A903DF5FEBCFC0E0E09198
:100990000A01F0910B018281C81740F460E0812FB9
:1009A0009C2F9F0D0E94A903CF5FF1CF1F5F812F66
:1009B000902FDF91CF911F910F91FF90EF90DF90DB
:1009C00008951F93CF93DF93182FEC018C2F811B79
:1009D0009991992351F0892F0E946104BC018C2FB9
:1009E000811B653014F477FFF1CFDF91CF911F9118
:1009F00008950F931F93CF93DF93EC019B01109207
:100A00000E0140930F011092120100910A01109102
:100A10000B010115110509F449C0F80181816091AC
:100A200008017091090190E00E945008BC0180917A
:100A30000C0190910D010E946108CB016AE070E009
:100A40000E94500890931101809310013093070188
:100A50002093060140E250E0BE0183E191E00E9454
:100A6000B60880910201909103010197F9F4FE010B
:100A700001900020E9F7CF010197F8019181692FDA
:100A800070E06F5F7F4F8C1B0E9447088150209160
:100A90000401309105012130310511F095E001C0CC
:100AA00097E0981718F48EEF80931201DF91CF91A1
:100AB0001F910F910895209104013091050121307B
:100AC000310511F070E001C076E04FEF60E00E9468
:100AD000F904089590E09093090180930801089526
:100AE00090930301809302010895909305018093F0
:100AF0000401089590930B0180930A010895809159
:100B00004C0290914D02019690934D0280934C02BD
:100B100020911001309111018217930708F469C0E8
:100B200010924D0210924C02E0910E01F0E0EE5F47
:100B3000FE4F818981110AC080910F01823008F433
:100B400058C0815080930F0110920E0180910E01C8
:100B500090E0FC01EE5FFE4F2189222309F449C099
:100B6000409102015091030120911201411551055C
:100B700021F04130510599F024C0211122C060912B
:100B80000601709107018D5E9E4F0E94E10490E086
:100B9000019790910E01890F80930E0112C0609110
:100BA0000601709107014091040150910501413007
:100BB000510511F4720F01C0621B8D5E9E4F0E94A1
:100BC000E104809112018F5F80931201082E000CC6
:100BD000990BE0910A01F0910B01218130E0281777
:100BE00039073CF41092120180910E018F5F8093BF
:100BF0000E010C94A501CF93DF93C2E0D1E09B8757
:100C00008A870E94C10184E190E09F838E83DF91F7
:100C1000CF910C945A040F931F93CF93DF93FC0151
:100C200071836083538342835583448381E0868349
:100C3000DF01199641E050E030E08FE691E0BD0120
:100C4000625071098D0101501109EB018883E8019F
:100C500088834217530714F49C9301C08C934F5F11
:100C60005F4F13964830510551F7178E168E84E664
:100C700090E0958F848FDF91CF911F910F91089510
:100C8000FC01718360830895FC0180819181813032
:100C9000910561F040F08230910561F0039769F4AD
:100CA00082818F5F09C083818F5F02C08381815001
:100CB000838303C0828181508283948185812281D4
:100CC000338135832483378120859783808792857C
:100CD000838532872387958786870895FC01868DD3
:100CE000978D0196978F868F248D358D8217930768
:100CF00028F0CF01178E168E0E94440680E00895DA
:100D00000C9486070C94A7070C948C070C949207FC
:100D10000C9498070E9498070E9492078823E1F399
:100D20008CE291E00197F1F70E94860781110C9403
:100D3000820608950C94AE07CF93DF9300D01F92E4
:100D4000CDB7DEB780ED90E09A83898388E08B830E
:100D5000509A589A0E9459078FE690E00E94F00638
:100D600081E090E00E94480761E070E081E090E05F
:100D70000E9434070E942007CE0101960E946E0750
:100D80000F900F900F90DF91CF910895CF93DF9345
:100D9000EC010E9458019E0140E050E062E17AE7D8
:100DA00080E090E00E947508309351022093500239
:100DB000DF91CF91089580914E0290914F020E9451
:100DC000670120914E0230914F0280915002909124
:100DD0005102820F931F90934F0280934E02089509
:100DE000CF93DF931F92CDB7DEB79E012F5F3F4FAA
:100DF00045E062ED71E00E94BA0791E0980F909390
:100E000033019981915097BD18BC95B5977039F011
:100E100095B5209133012770987F922B95BD29813C
:100E200030E0E82FF0E0EE52FE4FC901008002C032
:100E3000880F991F0A94E2F70F90DF91CF910895E0
:100E400085B3897F85BB85B5909133019770887F85
:100E5000892B85BD089585B5887F85BD089585B3A7
:100E600082FB882780F90895009719F0019741F0D7
:100E7000089584B56295660F660F607C8F7305C018
:100E800084B563706295607F8F7C682B64BD089524
:100E9000009741F0019759F484B58E7F84BD84B5E5
:100EA000826002C084B58C7F84BD81E0089580E0BB
:100EB000089514BC15BC16BC18BC84B58E7F84BDC7
:100EC00084B5826084BD81E008959C012150310980
:100ED0003093CD0081508093CC000895CF93DF9361
:100EE000EC01888199810E9465078A819BEF980FA8
:100EF000943008F088E098E19093C9008550880FFD
:100F00008093CA0081E0DF91CF9108958091C8005D
:100F1000881F8827881F08958091C80085FB88272F
:100F200080F908958091C80086FB882780F908958C
:100F3000CF93C82F0E948C078823E1F39091C800BB
:100F400090649093C800C093CE00CF910895809193
:100F5000C80087FFFCCF8091CE000895CF93DF9328
:100F6000EC018991882319F00E949807FACFDF914C
:100F7000CF910895CF93DF93DC01562FFB0160E002
:100F800070E0C1E0D0E08E2F851B8417B8F49191FA
:100F9000BE01092E02C0660F771F0A94E2F76F5F49
:100FA0007F4F769567956A0F7B1F02C07695679590
:100FB0009A95E2F76F3F710509F028F7F901608310
:100FC000DF91CF910895CF93DF93CDB7DEB7A09790
:100FD0000FB6F894DEBF0FBECDBF0E94480184EF6C
:100FE00091E00E94FB0584E391E00E947A0581E094
:100FF00090E00E94700581E090E00E9475058AE013
:101000000E946A050E94160324E041E050E060E07F
:1010100070E08BE192E00E940B0624E043E056E092
:1010200061E070E08BEF91E00E940B06CE0101962B
:1010300020E2FC0111922A95E9F722EB30E03A8395
:1010400029832EE330E03E832D832AE530E03A8782
:10105000298728E331E03E872D8749E550E05A8B08
:10106000498B3E8B2D8B4BE251E05A8F498F3E8F3F
:101070002D8F64E00E94650380E090E0A0960FB69B
:10108000F894DEBF0FBECDBFDF91CF91089500244D
:1010900080FD060E660F11F08695D1F7802D08951C
:1010A0000024552704C0080E591F880F991F009768
:1010B00029F076956795B8F37105B9F7802D952FCE
:1010C0000895AA1BBB1B51E107C0AA1FBB1FA6178F
:1010D000B70710F0A61BB70B881F991F5A95A9F7E1
:1010E00080959095BC01CD010895052E97FB1EF4C7
:1010F00000940E948C0857FD07D00E94940807FCBA
:1011000003D04EF40C948C08509540953095219561
:101110003F4F4F4F5F4F0895909580957095619523
:101120007F4F8F4F9F4F0895A1E21A2EAA1BBB1B22
:10113000FD010DC0AA1FBB1FEE1FFF1FA217B307A3
:10114000E407F50720F0A21BB30BE40BF50B661FB9
:10115000771F881F991F1A9469F76095709580957D
:1011600090959B01AC01BD01CF010895FB01DC010D
:101170004150504048F001900D920020C9F701C045
:0E1180001D9241505040E0F70895F894FFCFC3
:10118E00030000000000000014000000000000003A
:10119E000000000000000000000000000000000041
:1011AE000000000000000000000000000000000031
:1011BE0000000001010305203B0200009220EB73AA
:1011CE007D5FDE3DA552EA7A14004A222229BA2E0C
:1011DE00D0050014C0010020A4126A2B9A74A372C9
:1011EE00A338ED498F38CE2AA712AA2AAE49100489
:1011FE0010145444380E11152A250000EA5BEB3A00
:10120E004F726B3BCF73CF134F7AED5B9774247B8A
:10121E005D564972FD5B6F5B6F7BEF136F7FEF5710
:10122E00CE3897246D7B6D2BED5FAD5AAD24A77232
:10123E0003400080031003800320004000200010B4
:10124E000008000400020001038003400320008018
:08125E000310000306080A005A
:00000001FF
