:100000000C943A000C9457000C9457000C94570031
:100010000C9457000C9457000C9457000C94570004
:100020000C9457000C9457000C9457000C945700F4
:100030000C9457000C9457000C9457000C945700E4
:100040000C9457000C9457000C9457000C945700D4
:100050000C9457000C9457000C9457000C945700C4
:100060000C9457000C9457000C9457000C945700B4
:100070000C94570011241FBECFEFD4E0DEBFCDBFDC
:1000800011E0A0E0B1E0E6E7F5E102C005900D92D5
:10009000AC3EB107D9F722E0ACEEB1E001C01D9251
:1000A000A437B207E1F70E94FA090C94B90A0C943C
:1000B00000000E94E20380E00E94B0038823B1F0B8
:1000C0008091130290911402029781F40E948D098D
:1000D000FC0182819381019749F00E948D0960E0C3
:1000E00070E00E94890785E50E94340882E00E9442
:1000F000B0038823B1F0809113029091140202970B
:1001000081F40E948D09FC0182819381892B49F041
:100110000E948D0961E070E00E94890784E40E94DA
:10012000340881E00E94B0038823B1F0809113026B
:1001300090911402029781F40E948D09FC01828142
:100140009381029749F00E948D0963E070E00E945C
:10015000890782E50E94340883E00E94B003882367
:10016000B1F08091130290911402029781F40E94E1
:100170008D09FC0182819381039749F00E948D09CA
:1001800062E070E00E9489078CE40E94340884E0F9
:100190000C94B003DF92EF92FF920F931F93CF93D3
:1001A000DF938091130290911402029709F09FC08F
:1001B00020EF31E080E090E0F901E80FF91F1082B4
:1001C000019687309105C1F7295F3F4F82E02331C7
:1001D000380781F70E94A30500E010E096E0E92EC1
:1001E000F12C0E948D099C01C80163E070E00E941F
:1001F000440AEC01F901E80FF91F80858F36F1F010
:100200000E948D098C0F9D1FFC01D0840E948D09D6
:100210002696C80FD91F89819701281B310988812B
:1002200090E067E070E00E94440A820F931FFC0197
:10023000E051FE4FD0820F5F1F4FD3CF8091EC0172
:100240008F5F863028F48093EC0100E010E04CC012
:100250001092EC0100E010E086E0E82EF12C0E9404
:1002600099099C01C80163E070E00E94440AEC0116
:10027000F901E80FF91F80858F3639F30E9499093B
:100280008C0F9D1FFC01D0840E9499092696C80FEF
:10029000D91F89819701281B3109888190E067E087
:1002A00070E00E94440A820F931FFC01E051FE4F50
:1002B000D0820F5F1F4FD3CFCE0167E070E00E9466
:1002C000440A800F911FFC01E051FE4F60818C2F8A
:1002D000902F0E94F2042196C530D10569F70F5F77
:1002E0001F4F0730110519F0C0E0D0E0E5CFDF91D6
:1002F000CF911F910F91FF90EF90DF900C94C80663
:100300000E942A08882311F10E942C088C3449F09D
:100310001CF48434A9F00895823541F0853559F0F4
:1003200008950E94990962E070E00EC00E94990948
:1003300063E070E009C00E94990960E070E004C0C9
:100340000E94990961E070E00C94890708950F9369
:100350001F93CF93DF93CDB7DEB729970FB6F894ED
:10036000DEBF0FBECDBF8C0184EF91E00E9470080C
:1003700087E599E4AEE4B0E08E839F83A887B987D0
:1003800085E0E5EDF1E0DE01119601900D928A9590
:10039000E1F70230110539F00330110539F0013071
:1003A000110541F403C0CE01069602C0CE010196AC
:1003B0000E94A4060E9485080E94C8060E94ED09BA
:1003C00080E00E94BD098823A9F329960FB6F8940E
:1003D000DEBF0FBECDBFDF91CF911F910F9108956A
:1003E0000F931F93CF93DF93CDB7DEB762970FB60E
:1003F000F894DEBF0FBECDBF80911302909114021E
:100400008130910509F44AC058F18230910571F0AC
:10041000039709F07BC08091EE019091EF010E945B
:10042000A701109214021092130270C00E94990941
:100430008C010E948D09B8010E94C8079093EF01BA
:100440008093EE01892B49F40E948D090E941008C7
:100450000E9499090E94100859C083E090E052C0A0
:100460008CEB92E00E94440782E391E00E94C30675
:1004700081E090E00E94B90681E090E00E94BE0613
:100480008AE00E94B3060E945F040E94F7090E945E
:1004900046080E94AA0981E090E034C084EF91E010
:1004A0000E94700882E1EAEDF1E0DE011196019010
:1004B0000D928A95E1F7CE0101960E94A4060E9452
:1004C00085080E94C8060E94E2030E942A08882329
:1004D00049F00E942C088093ED01813319F482E0E9
:1004E00090E00AC084E00E94B003882341F381E3D6
:1004F0000E94340881E090E00E94A5090E94A305B3
:1005000082E090E0909314028093130262960FB6FB
:10051000F894DEBF0FBECDBFDF91CF911F910F9139
:100520000895E1E6F0E080E880831082A89584B722
:10053000877F84BFE0E6F0E080818861808310825D
:1005400008951092800084E08093810010928500CD
:100550001092840008958091840090918500089500
:10056000AC0180918400909185009C01241B350B87
:10057000283E3340B0F708952091840030918500E3
:10058000820F931F0C94B002853098F4673088F482
:1005900021E030E001C0220F6A95EAF7E82FF0E091
:1005A000EA5EFD4F922F9095808189234111822B25
:1005B00080830895853080F4673070F4E82FF0E090
:1005C000EA5EFD4F81E090E001C0880F6A95EAF78E
:1005D0009081982381E009F480E0089560911502EC
:1005E000E62FF0E0EA5EFD4F80810E944703809194
:1005F00015028F5F853018F48093150208951092CC
:1006000015020895E6E1F2E010821182128213824F
:10061000148208950E9425030C940203811105C0E1
:10062000662311F0429A0895429808953A9A429AA0
:1006300008959C01FC01FF2784A1832B84A395A12D
:10064000892F832B85A381E00895CF93DF93C8EB97
:10065000D1E0899199910E94190381E0C63CD807A5
:10066000C1F783E090E40E94190380E090E80E94C3
:10067000190383E090E10E94190383E090E80E944F
:10068000190383E090E2DF91CF910C941903E0917C
:100690001B02F0E0EE0FFF1FE255FE4F208131817B
:1006A000F901FF2795A1932B95A3E8EBF1E097E0E3
:1006B00020813181D901BB2795962C91959780FF98
:1006C00003C03095232301C0232B95962C93869548
:1006D000915032969111ECCFE62FF0E0EE0FFF1F14
:1006E000E255FE4F80819181FC01FF2785A1909505
:1006F000892385A360931B0208956230710511F16F
:1007000068F46130710551F5FC01FF2724A1892FA0
:100710008095922F982394A395A112C06330710500
:1007200041F064307105D1F4FC01FF2784A1892BCD
:100730000FC0FC01FF2784A1892B84A385A190957C
:10074000892309C0FC01FF2724A1892F80958223DA
:1007500084A385A1892B85A381E0089580E0089575
:10076000E82FF0E0EE0FFF1FE45EFD4F808188234D
:1007700021F0918181E0892702C080E090E08170C2
:100780000895E82FF0E0EE0FFF1FE45EFD4F80813B
:10079000811102C0818102C080E090E081700895E3
:1007A000E82FF0E0EE0FFF1FE45EFD4F808108951B
:1007B000E82FF0E0EE0FFF1FE45EFD4F908181E037
:1007C000892708956F927F928F929F92AF92BF92E6
:1007D000CF92DF92EF92FF920F931F93CF93DF930D
:1007E00000D0CDB7DEB72CE1622E22E0722E36ECBF
:1007F000C32E31E0D32E812C46E0942EF30180816C
:100800008183F601019111916F015801BB24F5011B
:1008100084A1E12EFF2425A130E02E213F2141E0DB
:10082000232B09F440E090E08E219F21892B29F0B1
:10083000411108C023E030E00AC0411106C021E0A8
:1008400030E005C024E030E002C022E030E064E0A7
:1008500070E0C80129833A830E947D0362E070E062
:10086000C8010E947D03892D8A95F1F7F50183A1C6
:1008700090E0E822F92281E029813A81EF2809F00D
:1008800080E0F3018083B901C8010E947D03839455
:10089000F2E06F0E711C85E08812B0CF0F900F90C0
:1008A000DF91CF911F910F91FF90EF90DF90CF904C
:1008B000BF90AF909F908F907F906F900895089514
:1008C000009789F0FC012381621B67FD09C0062E99
:1008D000000C770B248130E081E0621773070CF085
:1008E00080E08170089580E00895CF93DF93FC014C
:1008F000A62F822F309771F16181461758F59281AA
:10090000291740F59381A91BA7FD24C00A2E000CCE
:10091000BB0BC481D0E0AC17BD07E4F40E943B0AD6
:10092000480F658170E0CD010E94440A0696242F8D
:10093000269526952695E80FF91FE20FF11D908167
:10094000892F90E0477002C0959587954A95E2F708
:10095000817001C080E0DF91CF910895182F092F99
:10096000F62E0E94A1020E94AB02C12FD02F8E81D1
:100970009F810E94B002E881F9818A819B8109955B
:100980008E819F812C813D81280F391F3F832E83CB
:100990000E94AB02E12FF02FAFEFBFEF40E04F1509
:1009A00031F326813781BC01621B730B9B012F3F02
:1009B0007FE7370710F4EF01DACF31952195310940
:1009C0002A173B0710F4D901EF014F5F3896E7CFA4
:1009D00041E0611101C040E0692F0C94C402692F0D
:1009E0000C94DA0241E0611101C040E0692F0C94DF
:1009F000C4024F925F926F927F928F929F92AF92BA
:100A0000BF92CF92DF92EF92FF920F931F93CF93FB
:100A1000DF931F92CDB7DEB7862E942E5C01E62EB3
:100A2000F72E262F660F330B281B310987FD3395D0
:100A3000072F072E000C110B091B110997FD1395A9
:100A400037FF03C077247A9402C07724739417FF8A
:100A500003C066246A9402C066246394290137FFA8
:100A600003C051944194510817FF03C0119501959B
:100A7000110940165106A4F06201D594C794F92ECD
:100A8000A81421F1692D8A2D9F2D0E94F204C01A0D
:100A9000D10AD7FE03C0C40CD51CF60CA70CF0CFAE
:100AA0006801D594C794E82EB71681F0692D8E2D74
:100AB0009B2D79830E94F204C418D5087981D7FE52
:100AC00003C0C00ED11EE70CB60CEECF692DC701D6
:100AD0000F90DF91CF911F910F91FF90EF90DF90DA
:100AE000CF90BF90AF909F908F907F906F905F90CE
:100AF0004F900C94F204FF920F931F93CF93DF93C8
:100B0000D82FF92E162FC72F042F792F0E94F90402
:100B1000402F6D2F7C2F8D2F9F2D0E94F904402F89
:100B2000612F7C2F812F9F2D0E94F904402F612F70
:100B30007C2F8D2F9C2F0E94F904DF91CF911F9164
:100B40000F91FF9008950E940203E0E0F1E0118A06
:100B500014860895DF92EF92FF920F931F93CF9325
:100B6000DF93D82E7B01162F0F2D809102019091DB
:100B70000301C0E00197A1F50F2D0C1BE0910801C6
:100B8000F09109018181C817C0F4D0E0809108017B
:100B900090910901FC012281D21768F42D2F4C2F6E
:100BA0006D2D0E947504682F8D2F8E0D902F0E9441
:100BB000F204DF5FEBCFCF5FDFCFC0E0E091080151
:100BC000F09109018281C81740F460E08C2F8E0DEE
:100BD000902F0E94F204CF5FF1CF015031C0CF5F60
:100BE0001C2F1E0DE0910801F09109018181C817A9
:100BF000B0F4D0E08091080190910901FC012281BC
:100C0000D21768F72D2F4C2F6D2D0E947504682F79
:100C1000812F9D2F9F0D0E94F204DF5FEBCFC0E07C
:100C2000E0910801F09109018281C81740F460E069
:100C3000812F9C2F9F0D0E94F204CF5FF1CF1F5F89
:100C4000812F902FDF91CF911F910F91FF90EF9007
:100C5000DF9008951F93CF93DF93182FEC018C2F13
:100C6000811B9991992351F0892F0E94AA05BC01FB
:100C70008C2F811B653014F477FFF1CFDF91CF917A
:100C80001F9108950F931F93CF93DF93EC019B0166
:100C900010920C0140930D01109210010091080177
:100CA000109109010115110509F449C0F80181816C
:100CB000609106017091070190E00E94440ABC0116
:100CC00080910A0190910B010E94550ACB016AE0C4
:100CD00070E00E94440A90930F0180930E013093BC
:100CE00005012093040140E250E0BE0181E191E062
:100CF0000E94AA0A80910001909101010197F9F4E4
:100D0000FE0101900020E9F7CF010197F8019181E0
:100D1000692F70E06F5F7F4F8C1B0E943B0A8150F0
:100D200020910201309103012130310511F095E04D
:100D300001C097E0981718F48EEF80931001DF91AF
:100D4000CF911F910F9108952091020130910301DD
:100D50002130310511F070E001C076E04FEF60E026
:100D60000E944206089590E0909307018093060147
:100D700008959093010180930001089590930301D9
:100D800080930201089590930901809308010895CA
:100D900080912602909127020196909327028093DA
:100DA000260220910E0130910F018217930708F45B
:100DB00069C01092270210922602E0910C01F0E027
:100DC000E050FF4F818981110AC080910D0182306E
:100DD00008F458C0815080930D0110920C0180914D
:100DE0000C0190E0FC01E050FF4F2189222309F41F
:100DF00049C040910001509101012091100141151D
:100E0000510521F04130510599F024C0211122C033
:100E100060910401709105018F5E9E4F0E942A0629
:100E200090E0019790910C01890F80930C0112C002
:100E300060910401709105014091020150910301FC
:100E40004130510511F4720F01C0621B8F5E9E4F3D
:100E50000E942A06809110018F5F80931001082E56
:100E6000000C990BE0910801F0910901218130E01B
:100E7000281739073CF41092100180910C018F5F04
:100E800080930C010C94EE02CF93DF93C0E0D1E08D
:100E90009B878A870E940A0384E190E09F838E8368
:100EA000DF91CF910C94A3050F931F93CF93DF9302
:100EB000FC0171836083558344835783468381E0BB
:100EC0008087DF011B9641E050E030E08FE691E043
:100ED000BD01625071098D0101501109EB01888338
:100EE000E80188834217530714F49C9301C08C9344
:100EF0004F5F5F4F13964830510551F711A210A272
:100F000088EC90E0978F868FDF91CF911F910F91A2
:100F10000895FC01718360830895FC0180819181B3
:100F20008130910571F030F08230910591F0039796
:100F3000B9F01DC08581863010F48F5F06C0158220
:100F400016C08581882319F08150858310C086E002
:100F5000FCCF8481882311F0815006C084E004C056
:100F60008481843018F48F5F848301C01482968159
:100F70008781248135813783268331852285918736
:100F8000828794858585348725879787808B089508
:100F90000F931F93CF93DF938C01EB01FC0194819E
:100FA0008C81981304C035812D81321761F1DE01E7
:100FB0001A969E012D5E3F4FAD0141505109FA0135
:100FC0004081941305C0F80155814C915417F1F0FC
:100FD0001396A217B30781F7D8011A96A8014D5EA0
:100FE0005F4F9D0121503109F9019081891304C09F
:100FF0002D819C91291769F01396A417B50789F7DD
:1010000080E090E008C083E090E005C081E090E0DF
:1010100002C082E090E0DF91CF911F910F9108957F
:10102000CF93DF93EC0188A199A1019699A388A39E
:101030002E8D3F8D8217930728F019A218A2CE019A
:101040000E948D07888199819B838A8380E0DF914C
:10105000CF9108950C9430090C9451090C943609E1
:101060000C943C090C9442090E9442090E943C09DC
:101070008823E1F38CE291E00197F1F70E943009B7
:1010800081110C942C0808950C945809CF93DF9388
:1010900000D01F92CDB7DEB780ED90E09A838983B0
:1010A00088E08B83509A589A0E9403098FE690E05B
:1010B0000E949A0881E090E00E94F20861E070E0EE
:1010C00081E090E00E94DE080E94CA08CE010196ED
:1010D0000E9418090F900F900F90DF91CF91089503
:1010E000CF93DF93EC010E94A1029E0140E050E00B
:1010F00062E17AE780E090E00E94690A30932B0277
:1011000020932A02DF91CF91089580912802909137
:1011100029020E94B0022091280230912902809178
:101120002A0290912B02820F931F909329028093A1
:1011300028020895CF93DF931F92CDB7DEB79E01AB
:101140002F5F3F4F45E060ED71E00E94640991E040
:10115000980F909331019981915097BD18BC95B526
:10116000977039F095B5209131012770987F922BB7
:1011700095BD298130E0E82FF0E0E053FE4FC90132
:10118000008002C0880F991F0A94E2F70F90DF9148
:10119000CF91089585B3897F85BB85B59091310145
:1011A0009770887F892B85BD089585B5887F85BD1B
:1011B000089585B382FB882780F90895009719F078
:1011C000019741F0089584B56295660F660F607CC3
:1011D0008F7305C084B563706295607F8F7C682BC8
:1011E00064BD0895009741F0019759F484B58E7F4E
:1011F00084BD84B5826002C084B58C7F84BD81E0EB
:10120000089580E0089514BC15BC16BC18BC84B5C4
:101210008E7F84BD84B5826084BD81E008959C0189
:10122000215031093093CD0081508093CC00089536
:10123000CF93DF93EC01888199810E940F098A8105
:101240009BEF980F943008F088E098E19093C900E4
:101250008550880F8093CA0081E0DF91CF91089577
:101260008091C800881F8827881F08958091C80032
:1012700085FB882780F908958091C80086FB882720
:1012800080F90895CF93C82F0E9436098823E1F38F
:101290009091C80090649093C800C093CE00CF9105
:1012A00008958091C80087FFFCCF8091CE000895FB
:1012B000CF93DF93EC018991882319F00E944209B2
:1012C000FACFDF91CF910895CF93DF93DC01562FB2
:1012D000FB0160E070E0C1E0D0E08E2F851B841739
:1012E000B8F49191BE01092E02C0660F771F0A94CF
:1012F000E2F76F5F7F4F769567956A0F7B1F02C09D
:10130000769567959A95E2F76F3F710509F028F792
:10131000F9016083DF91CF91089580912C02909123
:101320002D02019719F082E592E0089580E392E0A2
:10133000089580912C0290912D02019719F080E37D
:1013400092E0089582E592E0089590932D028093B3
:101350002C02089524E041E050E060E070E080E37A
:1013600092E00E94540724E043E056E061E070E020
:1013700082E592E00E945407089581110DC080918A
:101380002E02882329F090912F0281E0892702C044
:1013900080E090E08170089580E0089581110BC095
:1013A00080912E02811103C080912F0202C080E043
:1013B00090E08170089580E00895811103C08091CC
:1013C0002E02089580E00895811105C090912E02AB
:1013D00081E08927089580E00895EEE2F2E08081BF
:1013E000818389B1881F8827881F80830895579833
:1013F0005F980895CF93DF93CDB7DEB7A0970FB670
:10140000F894DEBF0FBECDBF0E949102CE010196BF
:1014100020E2FC0111922A95E9F72AEC30E03A83A8
:1014200029832CE230E03E832D8329E530E03A87A2
:1014300029872CE930E03E872D8720E831E03A8B80
:10144000298B2DE730E03E8B2D8B20EF31E03A8F5A
:10145000298F28E331E03E8F2D8F64E00E94AE0497
:1014600080E090E0A0960FB6F894DEBF0FBECDBF2F
:10147000DF91CF910895002480FD060E660F11F0D4
:101480008695D1F7802D08950024552704C0080EB5
:10149000591F880F991F009729F076956795B8F323
:1014A0007105B9F7802D952F0895AA1BBB1B51E13B
:1014B00007C0AA1FBB1FA617B70710F0A61BB70BC4
:1014C000881F991F5A95A9F780959095BC01CD0169
:1014D0000895052E97FB1EF400940E94800A57FD84
:1014E00007D00E94880A07FC03D04EF40C94800AAF
:1014F00050954095309521953F4F4F4F5F4F089540
:1015000090958095709561957F4F8F4F9F4F08956F
:10151000A1E21A2EAA1BBB1BFD010DC0AA1FBB1FF7
:10152000EE1FFF1FA217B307E407F50720F0A21B69
:10153000B30BE40BF50B661F771F881F991F1A94D6
:1015400069F760957095809590959B01AC01BD0100
:10155000CF010895FB01DC014150504048F001905B
:101560000D920020C9F701C01D9241505040E0F794
:061570000895F894FFCF7E
:101576000000000000001400000000000000000051
:101586000000000000000000000000000000000055
:101596000000000000000000000000000000000045
:1015A6000001010305203B0200009220EB737D5FE2
:1015B600DE3DA552EA7A14004A222229BA2ED00527
:1015C6000014C0010020A4126A2B9A74A372A338D7
:1015D600ED498F38CE2AA712AA2AAE491004101454
:1015E6005444380E11152A250000EA5BEB3A4F7277
:1015F6006B3BCF73CF134F7AED5B9774247B5D56AD
:101606004972FD5B6F5B6F7BEF136F7FEF57CE38D1
:1016160097246D7B6D2BED5FAD5AAD24A772034009
:101626000080031003800320004000200010000803
:101636000004000200010380034003200080031021
:10164600000306080A4C4F53540057454C434F4D70
:0C1656004520544F20534E414B4553009B
:00000001FF
