:100000000C943A000C9457000C9457000C94570031
:100010000C9457000C9457000C9457000C94570004
:100020000C9457000C9457000C9457000C945700F4
:100030000C9457000C9457000C9457000C945700E4
:100040000C9457000C9457000C9457000C945700D4
:100050000C9457000C9457000C9457000C945700C4
:100060000C9457000C9457000C9457000C945700B4
:100070000C94570011241FBECFEFD4E0DEBFCDBFDC
:1000800011E0A0E0B1E0EAE0F4E102C005900D92D9
:10009000AA3EB107D9F722E0AAEEB1E001C01D9255
:1000A000AE36B207E1F70E9446090C94030A0C949D
:1000B00000000F931F93CF93DF93CDB7DEB7629706
:1000C0000FB6F894DEBF0FBECDBF009100011091B6
:1000D00001010230110509F459C00330110581F105
:1000E0000130110509F090C084EF91E00E945307A0
:1000F00084E391E00E94D20681E090E00E94C8066D
:1001000081E090E00E94CD068AE00E94C2060E9433
:100110006E040E94FF0724E041E050E060E070E0E0
:1001200085E392E00E94630724E043E056E061E04B
:1001300070E083E192E00E94630782E090E060C09B
:100140000E94C6079093ED018093EC01892BD9F4AE
:100150008091110290911202019719F083E192E0CF
:1001600002C085E392E00E94C9078091110290913C
:100170001202019719F085E392E002C083E192E058
:100180000E94C90741C084E090E03AC084EF91E04A
:100190000E94290882E1E7EDF1E0DE01119601906D
:1001A0000D928A95E1F7CE0101960E94B306109355
:1001B0001202009311020E943E080E94D7060E947C
:1001C000F1030E94E307882349F00E94E50780932A
:1001D000EB01813319F482E090E00AC084E00E94D0
:1001E000BF03882341F381E30E94ED0781E090E0A3
:1001F00090931202809311020E94B20583E090E076
:10020000909301018093000162960FB6F894DEBFCF
:100210000FBECDBFDF91CF911F910F9108950E9426
:10022000E307882309F449C00E94E5078C3449F0AC
:100230001CF4843499F10895823591F08535F9F0F4
:1002400008958091110290911202019719F085E3AF
:1002500092E002C083E192E062E070E00E949807C1
:100260008091110290911202019719F085E392E0BA
:1002700002C083E192E063E070E00E949807809101
:10028000110290911202019719F085E392E002C0E9
:1002900083E192E060E070E00E9498078091110293
:1002A00090911202019719F085E392E002C083E178
:1002B00092E061E070E00C9498070895EF92FF924D
:1002C0000F931F93CF93DF938091000190910101D1
:1002D000039709F09DC02EEE31E080E090E0F90137
:1002E000E80FF91F1082019687309105C1F7295F49
:1002F0003F4F82E02131380781F70E94B205E0903C
:100300001102F0901202C0E0D0E006E010E0A1E09F
:10031000EA16F10419F0E3E1F2E002C0E5E3F2E0ED
:10032000CE0163E070E00E948E099F01280F391F03
:10033000D90118964C914F36A9F00696E80FF91F8F
:1003400081819801281B3109808190E067E070E08D
:100350000E948E09820F931FFC01E251FE4F4083E1
:100360002196D5CF8091EA018F5F8B3028F480935E
:10037000EA0100E010E049C01092EA01C0E0D0E0DC
:1003800006E010E0B1E0EB16F10419F0E5E3F2E06D
:1003900002C0E3E1F2E0CE0163E070E00E948E096A
:1003A0009F01280F391FD90118964C914F3609F338
:1003B0000696E80FF91F81819801281B3109808179
:1003C00090E067E070E00E948E09820F931FFC01AD
:1003D000E251FE4F40832196D5CFCE0167E070E019
:1003E0000E948E09800F911FFC01E251FE4F608137
:1003F0008C2F902F0E9401052196C530D10569F7F9
:100400000F5F1F4F0730110519F0C0E0D0E0E5CFB6
:10041000DF91CF911F910F91FF90EF900C94D70631
:100420000E94F10380E00E94BF038823F1F08091D5
:100430000001909101010397C1F480911102909104
:100440001202019719F083E192E002C085E392E085
:10045000FC01228133812130310539F060E070E008
:100460000E94980785E50E94ED0782E00E94BF0385
:100470008823E9F080910001909101010397B9F47C
:100480008091110290911202019719F083E192E09C
:1004900002C085E392E0FC0122813381232B39F0F5
:1004A00061E070E00E94980784E40E94ED0781E01B
:1004B0000E94BF038823F1F0809100019091010117
:1004C0000397C1F48091110290911202019719F0E3
:1004D00083E192E002C085E392E0FC012281338156
:1004E0002230310539F063E070E00E94980782E520
:1004F0000E94ED0783E00E94BF038823F1F0809102
:100500000001909101010397C1F480911102909133
:100510001202019719F083E192E002C085E392E0B4
:10052000FC01228133812330310539F062E070E033
:100530000E9498078CE40E94ED0784E00C94BF03AE
:10054000E1E6F0E080E880831082A89584B7877F99
:1005500084BFE0E6F0E080818861808310820895A6
:100560001092800084E080938100109285001092A8
:100570008400089580918400909185000895AC01D5
:1005800080918400909185009C01241B350B283EAE
:100590003340B0F708952091840030918500820F98
:1005A000931F0C94BF02853098F4673088F421E0E3
:1005B00030E001C0220F6A95EAF7E82FF0E0E85A30
:1005C000FD4F922F9095808189234111822B80834A
:1005D0000895853080F4673070F4E82FF0E0E85A31
:1005E000FD4F81E090E001C0880F6A95EAF79081A5
:1005F000982381E009F480E0089560915702E62F86
:10060000F0E0E85AFD4F80810E9456038091570226
:100610008F5F853018F48093570208951092570227
:100620000895E8E5F2E010821182128213821482AA
:1006300008950E9434030C941103811105C06623B0
:1006400011F0429A0895429808953A9A429A08956C
:100650009C01FC01FF2784A1832B84A395A1892FF2
:10066000832B85A381E00895CF93DF93CAEBD1E07C
:10067000899199910E94280381E0C83CD807C1F76D
:1006800083E090E40E94280380E090E80E94280321
:1006900083E090E10E94280383E090E80E94280311
:1006A00083E090E2DF91CF910C942803E0915D020A
:1006B000F0E0EE0FFF1FE055FE4F20813181F90180
:1006C000FF2795A1932B95A3EAEBF1E097E020811A
:1006D0003181D901BB2795962C91959780FF03C056
:1006E0003095232301C0232B95962C93869591500A
:1006F00032969111ECCFE62FF0E0EE0FFF1FE055A0
:10070000FE4F80819181FC01FF2785A1909589236F
:1007100085A360935D0208956230710511F168F45C
:100720006130710551F5FC01FF2724A1892F8095C7
:10073000922F982394A395A112C06330710541F0C4
:1007400064307105D1F4FC01FF2784A1892B0FC00F
:10075000FC01FF2784A1892B84A385A1909589237F
:1007600009C0FC01FF2724A1892F8095822384A33F
:1007700085A1892B85A381E0089580E00895E82F65
:10078000F0E0EE0FFF1FE25AFD4F8081882321F039
:10079000918181E0892702C080E090E08170089516
:1007A000E82FF0E0EE0FFF1FE25AFD4F808181112C
:1007B00002C0818102C080E090E081700895E82F3E
:1007C000F0E0EE0FFF1FE25AFD4F80810895E82F01
:1007D000F0E0EE0FFF1FE25AFD4F908181E0892784
:1007E00008956F927F928F929F92AF92BF92CF9215
:1007F000DF92EF92FF920F931F93CF93DF9300D07E
:10080000CDB7DEB72EE5622E22E0722E38ECC32E75
:1008100031E0D32E812C46E0942EF3018081818338
:10082000F601019111916F015801BB24F50184A1DA
:10083000E12EFF2425A130E02E213F2141E0232B92
:1008400009F440E090E08E219F21892B29F041118D
:1008500008C023E030E00AC0411106C021E030E0CA
:1008600005C024E030E002C022E030E064E070E047
:10087000C80129833A830E948C0362E070E0C801BA
:100880000E948C03892D8A95F1F7F50183A190E0F0
:10089000E822F92281E029813A81EF2809F080E0FD
:1008A000F3018083B901C8010E948C038394F2E0B4
:1008B0006F0E711C85E08812B0CF0F900F90DF9102
:1008C000CF911F910F91FF90EF90DF90CF90BF904D
:1008D000AF909F908F907F906F90089508950097AC
:1008E00089F0FC012381621B67FD09C0062E000C04
:1008F000770B248130E081E0621773070CF080E011
:100900008170089580E00895CF93DF93FC01A62FB6
:10091000822F309771F16181461758F5928129171E
:1009200040F59381A91BA7FD24C00A2E000CBB0B28
:10093000C481D0E0AC17BD07E4F40E948509480FDC
:10094000658170E0CD010E948E090696242F2695C0
:1009500026952695E80FF91FE20FF11D9081892F4A
:1009600090E0477002C0959587954A95E2F78170AF
:1009700001C080E0DF91CF910895182F092FF62E46
:100980000E94B0020E94BA02C12FD02F8E819F8197
:100990000E94BF02E881F9818A819B8109958E813D
:1009A0009F812C813D81280F391F3F832E830E9418
:1009B000BA02E12FF02FAFEFBFEF40E04F1531F358
:1009C00026813781BC01621B730B9B012F3F7FE7A0
:1009D000370710F4EF01DACF3195219531092A1745
:1009E0003B0710F4D901EF014F5F3896E7CF41E0A4
:1009F000611101C040E0692F0C94D302692F0C945F
:100A0000E90241E0611101C040E0692F0C94D3027A
:100A10004F925F926F927F928F929F92AF92BF920E
:100A2000CF92DF92EF92FF920F931F93CF93DF93BA
:100A30001F92CDB7DEB7862E942E5C01E62EF72EE0
:100A4000262F660F330B281B310987FD3395072F9F
:100A5000072E000C110B091B110997FD139537FF89
:100A600003C077247A9402C07724739417FF03C0DD
:100A700066246A9402C066246394290137FF03C088
:100A800051944194510817FF03C011950195110924
:100A900040165106A4F06201D594C794F92EA8140B
:100AA00021F1692D8A2D9F2D0E940105C01AD10ABE
:100AB000D7FE03C0C40CD51CF60CA70CF0CF680100
:100AC000D594C794E82EB71681F0692D8E2D9B2DF5
:100AD00079830E940105C418D5087981D7FE03C027
:100AE000C00ED11EE70CB60CEECF692DC7010F90DA
:100AF000DF91CF911F910F91FF90EF90DF90CF90FA
:100B0000BF90AF909F908F907F906F905F904F902D
:100B10000C940105FF920F931F93CF93DF93D82F6F
:100B2000F92E162FC72F042F792F0E940805402F6A
:100B30006D2F7C2F8D2F9F2D0E940805402F612F38
:100B40007C2F812F9F2D0E940805402F612F7C2F25
:100B50008D2F9C2F0E940805DF91CF911F910F913F
:100B6000FF9008950E941103E2E0F1E0118A1486DB
:100B70000895DF92EF92FF920F931F93CF93DF932D
:100B8000D82E7B01162F0F2D809104019091050125
:100B9000C0E00197A1F50F2D0C1BE0910A01F09127
:100BA0000B018181C817C0F4D0E080910A019091B7
:100BB0000B01FC012281D21768F42D2F4C2F6D2DD3
:100BC0000E948404682F8D2F8E0D902F0E940105A6
:100BD000DF5FEBCFCF5FDFCFC0E0E0910A01F091A4
:100BE0000B018281C81740F460E08C2F8E0D902F8E
:100BF0000E940105CF5FF1CF015031C0CF5F1C2FA4
:100C00001E0DE0910A01F0910B018181C817B0F42B
:100C1000D0E080910A0190910B01FC012281D21752
:100C200068F72D2F4C2F6D2D0E948404682F812F83
:100C30009D2F9F0D0E940105DF5FEBCFC0E0E0918B
:100C40000A01F0910B018281C81740F460E0812F06
:100C50009C2F9F0D0E940105CF5FF1CF1F5F812F59
:100C6000902FDF91CF911F910F91FF90EF90DF9028
:100C700008951F93CF93DF93182FEC018C2F811BC6
:100C80009991992351F0892F0E94B905BC018C2FAD
:100C9000811B653014F477FFF1CFDF91CF911F9165
:100CA00008950F931F93CF93DF93EC019B01109254
:100CB0000E0140930F011092120100910A01109150
:100CC0000B010115110509F449C0F80181816091FA
:100CD00008017091090190E00E948E09BC01809189
:100CE0000C0190910D010E949F09CB016AE070E018
:100CF0000E948E0990931101809310013093070197
:100D00002093060140E250E0BE0183E191E00E94A1
:100D1000F40980910201909103010197F9F4FE0119
:100D200001900020E9F7CF010197F8019181692F27
:100D300070E06F5F7F4F8C1B0E948509815020916E
:100D40000401309105012130310511F095E001C019
:100D500097E0981718F48EEF80931201DF91CF91EE
:100D60001F910F91089520910401309105012130C8
:100D7000310511F070E001C076E04FEF60E00E94B5
:100D80005106089590E09093090180930801089519
:100D9000909303018093020108959093050180933D
:100DA0000401089590930B0180930A0108958091A6
:100DB000680290916902019690936902809368029B
:100DC00020911001309111018217930708F469C036
:100DD0001092690210926802E0910E01F0E0EE5F5D
:100DE000FE4F818981110AC080910F01823008F481
:100DF00058C0815080930F0110920E0180910E0116
:100E000090E0FC01EE5FFE4F2189222309F449C0E6
:100E100040910201509103012091120141155105A9
:100E200021F04130510599F024C0211122C0609178
:100E30000601709107018D5E9E4F0E94390690E079
:100E4000019790910E01890F80930E0112C060915D
:100E50000601709107014091040150910501413054
:100E6000510511F4720F01C0621B8D5E9E4F0E94EE
:100E70003906809112018F5F80931201082E000CB9
:100E8000990BE0910A01F0910B01218130E02817C4
:100E900039073CF41092120180910E018F5F80930C
:100EA0000E010C94FD02CF93DF93C2E0D1E09B874B
:100EB0008A870E94190384E190E09F838E83DF91EB
:100EC000CF910C94B2050F931F93CF93DF93FC0146
:100ED00071836083558344835783468381E0808791
:100EE000DF011B9641E050E030E08FE691E0BD016C
:100EF000625071098D0101501109EB018883E801ED
:100F000088834217530714F49C9301C08C934F5F5E
:100F10005F4F13964830510551F711A210A284E695
:100F200090E0978F868FDF91CF911F910F91089559
:100F3000FC01718360830895FC018081918181307F
:100F4000910561F040F08230910561F0039769F4FA
:100F500084818F5F09C085818F5F02C08581815048
:100F6000858303C084818150848396818781248115
:100F700035813783268331852285918782879485C1
:100F80008585348725879787808B089580E090E05A
:100F90000895CF93DF93EC0188A199A1019699A3BD
:100FA00088A32E8D3F8D8217930728F019A218A2CF
:100FB000CE010E949C07888199819B838A8380E06F
:100FC000DF91CF9108950C94E9080C940A090C94D0
:100FD000EF080C94F5080C94FB080E94FB080E9493
:100FE000F5088823E1F38CE291E00197F1F70E9484
:100FF000E90881110C94E50708950C941109CF9329
:10100000DF9300D01F92CDB7DEB780ED90E09A83DA
:10101000898388E08B83509A589A0E94BC088FE697
:1010200090E00E94530881E090E00E94AB0861E0EC
:1010300070E081E090E00E9497080E948308CE0152
:1010400001960E94D1080F900F900F90DF91CF91E1
:101050000895CF93DF93EC010E94B0029E0140E01F
:1010600050E062E17AE780E090E00E94B3093093BB
:101070006D0220936C02DF91CF91089580916A02F6
:1010800090916B020E94BF0220916A0230916B0224
:1010900080916C0290916D02820F931F90936B026E
:1010A00080936A020895CF93DF931F92CDB7DEB786
:1010B0009E012F5F3F4F45E062ED71E00E941D09E8
:1010C00091E0980F909333019981915097BD18BC8E
:1010D00095B5977039F095B5209133012770987FB9
:1010E000922B95BD298130E0E82FF0E0EE52FE4FC3
:1010F000C901008002C0880F991F0A94E2F70F907F
:10110000DF91CF91089585B3897F85BB85B5909197
:1011100033019770887F892B85BD089585B5887FB9
:1011200085BD089585B382FB882780F908950097CF
:1011300019F0019741F0089584B56295660F660F26
:10114000607C8F7305C084B563706295607F8F7C0F
:10115000682B64BD0895009741F0019759F484B558
:101160008E7F84BD84B5826002C084B58C7F84BDCF
:1011700081E0089580E0089514BC15BC16BC18BC2D
:1011800084B58E7F84BD84B5826084BD81E008957E
:101190009C01215031093093CD0081508093CC00C7
:1011A0000895CF93DF93EC01888199810E94C8084C
:1011B0008A819BEF980F943008F088E098E1909333
:1011C000C9008550880F8093CA0081E0DF91CF91DC
:1011D00008958091C800881F8827881F08958091EE
:1011E000C80085FB882780F908958091C80086FB98
:1011F000882780F90895CF93C82F0E94EF0888238D
:10120000E1F39091C80090649093C800C093CE0021
:10121000CF9108958091C80087FFFCCF8091CE00C8
:101220000895CF93DF93EC018991882319F00E94F0
:10123000FB08FACFDF91CF910895CF93DF93DC01C4
:10124000562FFB0160E070E0C1E0D0E08E2F851BDF
:101250008417B8F49191BE01092E02C0660F771F62
:101260000A94E2F76F5F7F4F769567956A0F7B1F51
:1012700002C0769567959A95E2F76F3F710509F080
:1012800028F7F9016083DF91CF910895CF93DF9321
:10129000CDB7DEB7A0970FB6F894DEBF0FBECDBFB7
:1012A0000E94A002CE01019620E2FC0111922A9533
:1012B000E9F72EE531E03A8329832EE330E03E83DF
:1012C0002D8320E132E03A8729872CE930E03E8700
:1012D0002D874FE051E05A8B498B3E8B2D8B29E5B2
:1012E00030E03A8F298F28E331E03E8F2D8F64E084
:1012F0000E94BD0480E090E0A0960FB6F894DEBF97
:101300000FBECDBFDF91CF910895002480FD060E62
:10131000660F11F08695D1F7802D0895002455278A
:1013200004C0080E591F880F991F009729F0769561
:101330006795B8F37105B9F7802D952F0895AA1B0D
:10134000BB1B51E107C0AA1FBB1FA617B70710F0B0
:10135000A61BB70B881F991F5A95A9F780959095E2
:10136000BC01CD010895052E97FB1EF400940E9448
:10137000CA0957FD07D00E94D20907FC03D04EF4DA
:101380000C94CA0950954095309521953F4F4F4F89
:101390005F4F089590958095709561957F4F8F4F21
:1013A0009F4F0895A1E21A2EAA1BBB1BFD010DC081
:1013B000AA1FBB1FEE1FFF1FA217B307E407F50705
:1013C00020F0A21BB30BE40BF50B661F771F881FE1
:1013D000991F1A9469F760957095809590959B0177
:1013E000AC01BD01CF010895FB01DC01415050402B
:1013F00048F001900D920020C9F701C01D924150A4
:0A1400005040E0F70895F894FFCF84
:10140A0001000000000000001400000000000000BD
:10141A0000000000000000000000000000000000C2
:10142A0000000000000000000000000000000000B2
:10143A0000000001010305203B0200009220EB732B
:10144A007D5FDE3DA552EA7A14004A222229BA2E8D
:10145A00D0050014C0010020A4126A2B9A74A3724A
:10146A00A338ED498F38CE2AA712AA2AAE4910040A
:10147A0010145444380E11152A250000EA5BEB3A81
:10148A004F726B3BCF73CF134F7AED5B9774247B0C
:10149A005D564972FD5B6F5B6F7BEF136F7FEF5792
:1014AA00CE3897246D7B6D2BED5FAD5AAD24A772B4
:1014BA000340008003100380032000400020001036
:1014CA00000800040002000103800340032000809A
:1014DA000310000306080A57454C434F4D45205454
:0A14EA004F20534E414B45530000C4
:00000001FF
