:100000000C943A000C9457000C9457000C94570031
:100010000C9457000C9457000C9457000C94570004
:100020000C9457000C9457000C9457000C945700F4
:100030000C9457000C9457000C9457000C945700E4
:100040000C9457000C9457000C9457000C945700D4
:100050000C9457000C9457000C9457000C945700C4
:100060000C9457000C9457000C9457000C945700B4
:100070000C94570011241FBECFEFD4E0DEBFCDBFDC
:1000800011E0A0E0B1E0E0EEF3E102C005900D92D6
:10009000A83EB107D9F722E0A8EEB1E001C01D9259
:1000A000AA36B207E1F70E94CB080C94EE090C9433
:1000B000000080910001909101018330910539F099
:1000C00018F40297F1F00895069708F51AC0809188
:1000D0000D0290910E02019719F08FE092E002C09C
:1000E00081E392E00E944E0780910D0290910E02F2
:1000F000029719F081E392E002C08FE092E00C9445
:100100004E0783E090E090930101809300010895F1
:100110000E946807882309F449C00E946A078C344A
:1001200049F01CF4843499F10895823591F08535B5
:10013000F9F0089580910D0290910E02029719F046
:1001400081E392E002C08FE092E062E070E00E9402
:10015000200780910D0290910E02029719F081E321
:1001600092E002C08FE092E063E070E00E9420071E
:1001700080910D0290910E02029719F081E392E0B6
:1001800002C08FE092E060E070E00E942007809162
:100190000D0290910E02029719F081E392E002C0E5
:1001A0008FE092E061E070E00C9420070895EF92F8
:1001B000FF920F931F93CF93DF9380910001909153
:1001C0000101039709F09DC02AEE31E080E090E044
:1001D000F901E80FF91F1082019687309105C1F7E8
:1001E000295F3F4F82E02D30380781F70E943A05A2
:1001F000E0900D02F0900E02C0E0D0E006E010E0CA
:10020000A1E0EA16F10419F0EFE0F2E002C0E1E348
:10021000F2E0CE0163E070E00E9479099F01280FAF
:10022000391FD90118964C914F36A9F00696E80F60
:10023000F91F81819801281B3109808190E067E0D6
:1002400070E00E947909820F931FFC01E651FE4F76
:1002500040832196D5CF8091E9018F5F853128F4C5
:100260008093E90100E010E049C01092E901C0E08C
:10027000D0E006E010E0B2E0EB16F10419F0E1E3A3
:10028000F2E002C0EFE0F2E0CE0163E070E00E9435
:1002900079099F01280F391FD90118964C914F36C3
:1002A00009F30696E80FF91F81819801281B31098F
:1002B000808190E067E070E00E947909820F931FCF
:1002C000FC01E651FE4F40832196D5CFCE0167E079
:1002D00070E00E947909800F911FFC01E651FE4FEA
:1002E00060818C2F902F0E9489042196C530D10502
:1002F00069F70F5F1F4F0730110519F0C0E0D0E01C
:10030000E5CFDF91CF911F910F91FF90EF900C946B
:100310005F060E94790380E00E9447038823F1F082
:1003200080910001909101010397C1F480910D0229
:1003300090910E02019719F08FE092E002C081E3E4
:1003400092E0FC01228133812130310539F060E0F7
:1003500070E00E94200785E50E94720782E00E94FB
:1003600047038823E9F080910001909101010397F0
:10037000B9F480910D0290910E02019719F08FE06F
:1003800092E002C081E392E0FC0122813381232BC1
:1003900039F061E070E00E94200784E40E94720757
:1003A00081E00E9447038823F1F080910001909141
:1003B00001010397C1F480910D0290910E02019703
:1003C00019F08FE092E002C081E392E0FC0122810B
:1003D00033812230310539F063E070E00E9420075C
:1003E00082E50E94720783E00E9447038823F1F0B0
:1003F00080910001909101010397C1F480910D0259
:1004000090910E02019719F08FE092E002C081E313
:1004100092E0FC01228133812330310539F062E022
:1004200070E00E9420078CE40E94720784E00E9422
:100430004703882361F080910001909101010597A5
:1004400031F482E090E090930101809300010895DF
:10045000E1E6F0E080E880831082A89584B7877F8A
:1004600084BFE0E6F0E08081886180831082089597
:100470001092800084E08093810010928500109299
:100480008400089580918400909185000895AC01C6
:1004900080918400909185009C01241B350B283E9F
:1004A0003340B0F708952091840030918500820F89
:1004B000931F0C944702853098F4673088F421E04C
:1004C00030E001C0220F6A95EAF7E82FF0E0EC5A1D
:1004D000FD4F922F9095808189234111822B80833B
:1004E0000895853080F4673070F4E82FF0E0EC5A1E
:1004F000FD4F81E090E001C0880F6A95EAF7908196
:10050000982381E009F480E0089560915302E62F7A
:10051000F0E0EC5AFD4F80810E94DE028091530290
:100520008F5F853018F48093530208951092530220
:100530000895E4E5F2E0108211821282138214829F
:1005400008950E94BC020C949902811105C0662393
:1005500011F0429A0895429808953A9A429A08955D
:100560009C01FC01FF2784A1832B84A395A1892FE3
:10057000832B85A381E00895CF93DF93CAEBD1E06D
:10058000899199910E94B00281E0C83CD807C1F7D7
:1005900083E090E40E94B00280E090E80E94B00204
:1005A00083E090E10E94B00283E090E80E94B002F4
:1005B00083E090E2DF91CF910C94B002E091590278
:1005C000F0E0EE0FFF1FE055FE4F20813181F90171
:1005D000FF2795A1932B95A3EAEBF1E097E020810B
:1005E0003181D901BB2795962C91959780FF03C047
:1005F0003095232301C0232B95962C9386959150FB
:1006000032969111ECCFE62FF0E0EE0FFF1FE05590
:10061000FE4F80819181FC01FF2785A19095892360
:1006200085A36093590208956230710511F168F451
:100630006130710551F5FC01FF2724A1892F8095B8
:10064000922F982394A395A112C06330710541F0B5
:1006500064307105D1F4FC01FF2784A1892B0FC000
:10066000FC01FF2784A1892B84A385A19095892370
:1006700009C0FC01FF2724A1892F8095822384A330
:1006800085A1892B85A381E0089580E00895E82F56
:10069000F0E0EE0FFF1FE65AFD4F8081882321F026
:1006A000918181E0892702C080E090E08170089507
:1006B000E82FF0E0EE0FFF1FE65AFD4F8081811119
:1006C00002C0818102C080E090E081700895E82F2F
:1006D000F0E0EE0FFF1FE65AFD4F80810895E82FEE
:1006E000F0E0EE0FFF1FE65AFD4F908181E0892771
:1006F00008956F927F928F929F92AF92BF92CF9206
:10070000DF92EF92FF920F931F93CF93DF9300D06E
:10071000CDB7DEB72AE5622E22E0722E38ECC32E6A
:1007200031E0D32E812C46E0942EF3018081818329
:10073000F601019111916F015801BB24F50184A1CB
:10074000E12EFF2425A130E02E213F2141E0232B83
:1007500009F440E090E08E219F21892B29F041117E
:1007600008C023E030E00AC0411106C021E030E0BB
:1007700005C024E030E002C022E030E064E070E038
:10078000C80129833A830E94140362E070E0C80123
:100790000E941403892D8A95F1F7F50183A190E059
:1007A000E822F92281E029813A81EF2809F080E0EE
:1007B000F3018083B901C8010E9414038394F2E01D
:1007C0006F0E711C85E08812B0CF0F900F90DF91F3
:1007D000CF911F910F91FF90EF90DF90CF90BF903E
:1007E000AF909F908F907F906F900895089500979D
:1007F00089F0FC012381621B67FD09C0062E000CF5
:10080000770B248130E081E0621773070CF080E001
:100810008170089580E00895CF93DF93FC01A62FA7
:10082000822F309771F16181461758F5928129170F
:1008300040F59381A91BA7FD24C00A2E000CBB0B19
:10084000C481D0E0AC17BD07E4F40E947009480FE2
:10085000658170E0CD010E9479090696242F2695C6
:1008600026952695E80FF91FE20FF11D9081892F3B
:1008700090E0477002C0959587954A95E2F78170A0
:1008800001C080E0DF91CF910895182F092FF62E37
:100890000E9438020E944202C12FD02F8E819F8178
:1008A0000E944702E881F9818A819B8109958E81A6
:1008B0009F812C813D81280F391F3F832E830E9409
:1008C0004202E12FF02FAFEFBFEF40E04F1531F3C1
:1008D00026813781BC01621B730B9B012F3F7FE791
:1008E000370710F4EF01DACF3195219531092A1736
:1008F0003B0710F4D901EF014F5F3896E7CF41E095
:10090000611101C040E0692F0C945B02692F0C94C7
:10091000710241E0611101C040E0692F0C945B025B
:100920004F925F926F927F928F929F92AF92BF92FF
:10093000CF92DF92EF92FF920F931F93CF93DF93AB
:100940001F92CDB7DEB7862E942E5C01E62EF72ED1
:10095000262F660F330B281B310987FD3395072F90
:10096000072E000C110B091B110997FD139537FF7A
:1009700003C077247A9402C07724739417FF03C0CE
:1009800066246A9402C066246394290137FF03C079
:1009900051944194510817FF03C011950195110915
:1009A00040165106A4F06201D594C794F92EA814FC
:1009B00021F1692D8A2D9F2D0E948904C01AD10A28
:1009C000D7FE03C0C40CD51CF60CA70CF0CF6801F1
:1009D000D594C794E82EB71681F0692D8E2D9B2DE6
:1009E00079830E948904C418D5087981D7FE03C091
:1009F000C00ED11EE70CB60CEECF692DC7010F90CB
:100A0000DF91CF911F910F91FF90EF90DF90CF90EA
:100A1000BF90AF909F908F907F906F905F904F901E
:100A20000C948904FF920F931F93CF93DF93D82FD9
:100A3000F92E162FC72F042F792F0E949004402FD4
:100A40006D2F7C2F8D2F9F2D0E949004402F612FA2
:100A50007C2F812F9F2D0E949004402F612F7C2F8F
:100A60008D2F9C2F0E949004DF91CF911F910F91A9
:100A7000FF9008950E949902E2E0F1E0118A148645
:100A80000895DF92EF92FF920F931F93CF93DF931E
:100A9000D82E7B01162F0F2D809104019091050116
:100AA000C0E00197A1F50F2D0C1BE0910A01F09118
:100AB0000B018181C817C0F4D0E080910A019091A8
:100AC0000B01FC012281D21768F42D2F4C2F6D2DC4
:100AD0000E940C04682F8D2F8E0D902F0E94890488
:100AE000DF5FEBCFCF5FDFCFC0E0E0910A01F09195
:100AF0000B018281C81740F460E08C2F8E0D902F7F
:100B00000E948904CF5FF1CF015031C0CF5F1C2F0D
:100B10001E0DE0910A01F0910B018181C817B0F41C
:100B2000D0E080910A0190910B01FC012281D21743
:100B300068F72D2F4C2F6D2D0E940C04682F812FEC
:100B40009D2F9F0D0E948904DF5FEBCFC0E0E091F5
:100B50000A01F0910B018281C81740F460E0812FF7
:100B60009C2F9F0D0E948904CF5FF1CF1F5F812FC3
:100B7000902FDF91CF911F910F91FF90EF90DF9019
:100B800008951F93CF93DF93182FEC018C2F811BB7
:100B90009991992351F0892F0E944105BC018C2F16
:100BA000811B653014F477FFF1CFDF91CF911F9156
:100BB00008950F931F93CF93DF93EC019B01109245
:100BC0000E0140930F011092120100910A01109141
:100BD0000B010115110509F449C0F80181816091EB
:100BE00008017091090190E00E947909BC0180918F
:100BF0000C0190910D010E948A09CB016AE070E01E
:100C00000E9479099093110180931001309307019C
:100C10002093060140E250E0BE0183E191E00E9492
:100C2000DF0980910201909103010197F9F4FE011F
:100C300001900020E9F7CF010197F8019181692F18
:100C400070E06F5F7F4F8C1B0E9470098150209174
:100C50000401309105012130310511F095E001C00A
:100C600097E0981718F48EEF80931201DF91CF91DF
:100C70001F910F91089520910401309105012130B9
:100C8000310511F070E001C076E04FEF60E00E94A6
:100C9000D905089590E09093090180930801089583
:100CA000909303018093020108959093050180932E
:100CB0000401089590930B0180930A010895809197
:100CC000640290916502019690936502809364029C
:100CD00020911001309111018217930708F469C027
:100CE0001092650210926402E0910E01F0E0EE5F56
:100CF000FE4F818981110AC080910F01823008F472
:100D000058C0815080930F0110920E0180910E0106
:100D100090E0FC01EE5FFE4F2189222309F449C0D7
:100D2000409102015091030120911201411551059A
:100D300021F04130510599F024C0211122C0609169
:100D40000601709107018D5E9E4F0E94C10590E0E3
:100D5000019790910E01890F80930E0112C060914E
:100D60000601709107014091040150910501413045
:100D7000510511F4720F01C0621B8D5E9E4F0E94DF
:100D8000C105809112018F5F80931201082E000C23
:100D9000990BE0910A01F0910B01218130E02817B5
:100DA00039073CF41092120180910E018F5F8093FD
:100DB0000E010C948502CF93DF93C2E0D1E09B87B4
:100DC0008A870E94A10284E190E09F838E83DF9155
:100DD000CF910C943A050F931F93CF93DF93FC01AF
:100DE00071836083558344835783468381E0808782
:100DF000DF011B9641E050E030E08FE691E0BD015D
:100E0000625071098D0101501109EB018883E801DD
:100E100088834217530714F49C9301C08C934F5F4F
:100E20005F4F13964830510551F711A210A284E686
:100E300090E0978F868FDF91CF911F910F9108954A
:100E4000FC01718360830895FC0180819181813070
:100E5000910561F040F08230910561F0039769F4EB
:100E600084818F5F09C085818F5F02C08581815039
:100E7000858303C084818150848396818781248106
:100E800035813783268331852285918782879485B2
:100E90008585348725879787808B0895CF93DF9347
:100EA000EC0188A199A1019699A388A32E8D3F8D6D
:100EB0008217930728F019A218A2CE010E942407D6
:100EC000888199819B838A8380E0DF91CF91089507
:100ED0000C946E080C948F080C9474080C947A0887
:100EE0000C9480080E9480080E947A088823E1F30D
:100EF0008CE291E00197F1F70E946E0881110C9449
:100F00006A0708950C949608CF93DF9300D01F9240
:100F1000CDB7DEB780ED90E09A83898388E08B833C
:100F2000509A589A0E9441088FE690E00E94D80794
:100F300081E090E00E94300861E070E081E090E0A4
:100F40000E941C080E940808CE0101960E945608C3
:100F50000F900F900F90DF91CF910895CF93DF9373
:100F6000EC010E9438029E0140E050E062E17AE725
:100F700080E090E00E949E0930936902209368020D
:100F8000DF91CF91089580916602909167020E944F
:100F90004702209166023091670280916802909129
:100FA0006902820F931F90936702809366020895EF
:100FB000CF93DF931F92CDB7DEB79E012F5F3F4FD8
:100FC00045E062ED71E00E94A20891E0980F9093D5
:100FD00033019981915097BD18BC95B5977039F040
:100FE00095B5209133012770987F922B95BD29816B
:100FF00030E0E82FF0E0EE52FE4FC901008002C061
:10100000880F991F0A94E2F70F90DF91CF9108950E
:1010100085B3897F85BB85B5909133019770887FB3
:10102000892B85BD089585B5887F85BD089585B3D5
:1010300082FB882780F90895009719F0019741F005
:10104000089584B56295660F660F607C8F7305C046
:1010500084B563706295607F8F7C682B64BD089552
:10106000009741F0019759F484B58E7F84BD84B513
:10107000826002C084B58C7F84BD81E0089580E0E9
:10108000089514BC15BC16BC18BC84B58E7F84BDF5
:1010900084B5826084BD81E008959C0121503109AE
:1010A0003093CD0081508093CC000895CF93DF938F
:1010B000EC01888199810E944D088A819BEF980FED
:1010C000943008F088E098E19093C9008550880F2B
:1010D0008093CA0081E0DF91CF9108958091C8008C
:1010E000881F8827881F08958091C80085FB88275E
:1010F00080F908958091C80086FB882780F90895BB
:10110000CF93C82F0E9474088823E1F39091C80000
:1011100090649093C800C093CE00CF9108958091C1
:10112000C80087FFFCCF8091CE000895CF93DF9356
:10113000EC018991882319F00E948008FACFDF9191
:10114000CF910895CF93DF93DC01562FFB0160E030
:1011500070E0C1E0D0E08E2F851B8417B8F4919128
:10116000BE01092E02C0660F771F0A94E2F76F5F77
:101170007F4F769567956A0F7B1F02C076956795BE
:101180009A95E2F76F3F710509F028F7F90160833E
:10119000DF91CF9108950F931F93CF93DF93CDB736
:1011A000DEB7A0970FB6F894DEBF0FBECDBF0E948A
:1011B000280284EF91E00E94DB0684E391E00E9424
:1011C0005A0681E090E00E94500681E090E00E9483
:1011D00055068AE00E944A060E94F6030E94840790
:1011E00024E041E050E060E070E081E392E00E94A2
:1011F000EB0624E043E056E061E070E08FE092E02F
:101200000E94EB0684EF91E00E94AE0781E1E7EDDA
:10121000F1E08E010F5F1F4FD80101900D928A956A
:10122000E1F7C8010E943B060E94C3070E945F06C7
:101230000E94790384E00E944703882321F088E418
:101240000E94720717C00E946807882349F00E9415
:101250006A078093E801883439F781E090E006C09E
:101260008091E801883401F782E090E090930E02CB
:1012700080930D020E943A0580E2F80111928A954E
:10128000E9F787ED90E09A8389838EE390E09E836F
:101290008D8389E891E09A8789878CE990E09E8721
:1012A0008D8728E830E03A8B298B9E8B8D8B89E5E2
:1012B00090E09A8F898F88E391E09E8F8D8F64E014
:1012C000C8010E94450480E090E0A0960FB6F89413
:1012D000DEBF0FBECDBFDF91CF911F910F9108955B
:1012E000002480FD060E660F11F08695D1F7802D43
:1012F00008950024552704C0080E591F880F991F10
:10130000009729F076956795B8F37105B9F7802DA8
:10131000952F0895AA1BBB1B51E107C0AA1FBB1F35
:10132000A617B70710F0A61BB70B881F991F5A9571
:10133000A9F780959095BC01CD010895052E97FBE6
:101340001EF400940E94B50957FD07D00E94BD0904
:1013500007FC03D04EF40C94B50950954095309598
:1013600021953F4F4F4F5F4F089590958095709511
:1013700061957F4F8F4F9F4F0895A1E21A2EAA1BB0
:10138000BB1BFD010DC0AA1FBB1FEE1FFF1FA21735
:10139000B307E407F50720F0A21BB30BE40BF50B32
:1013A000661F771F881F991F1A9469F760957095BB
:1013B000809590959B01AC01BD01CF010895FB0183
:1013C000DC014150504048F001900D920020C9F7D7
:1013D00001C01D9241505040E0F70895F894FFCFAE
:1013E00003000000000000001400000000000000E6
:1013F00000000000000000000000000000000000ED
:1014000000000000000000000000000000000000DC
:1014100000000001010305203B0200009220EB7355
:101420007D5FDE3DA552EA7A14004A222229BA2EB7
:10143000D0050014C0010020A4126A2B9A74A37274
:10144000A338ED498F38CE2AA712AA2AAE49100434
:1014500010145444380E11152A250000EA5BEB3AAB
:101460004F726B3BCF73CF134F7AED5B9774247B36
:101470005D564972FD5B6F5B6F7BEF136F7FEF57BC
:10148000CE3897246D7B6D2BED5FAD5AAD24A772DE
:101490000340008003100380032000400020001060
:1014A00000080004000200010380034003200080C4
:1014B0000310000306080A57656C636F6D6520749E
:0814C0006F20536E616B6500A3
:00000001FF
